:020000040000FA
:10000000AE28B400841780048413A201201CA2002F
:1000100023200319A92823200319A9282320A9286C
:10002000B4003220200821040319A928A320841336
:100030003408800664001C281D28A00A0319A10F9B
:100040001A288006A9283408A2060130A000A101C0
:10005000000834052206031D0800A00A0319A10F99
:1000600028280800FF3A84178005A928A301A200C8
:10007000FF30A207031CA307031CA9280330A1001B
:10008000E63044203828A101FC3EA000A109031C51
:100090004F28FF300000A00703184A28A00764007B
:1000A000A10F49280800A20004305628A800230800
:1000B0002102031D5D2822082002043003180130AC
:1000C000031902302805031DFF30A9280038031D3D
:1000D000FF300405031DFF30A9280404031DFF3071
:1000E000A928A501A4011030A600210DA40DA50D7D
:1000F0002208A4022308031C230FA5020318872843
:100100002208A40723080318230FA5070310A00D36
:10011000A10DA60B75282008A9281030A800A10160
:10012000A001A70CA60C031C9B282208A0072308EB
:100130000318230FA107A10CA00CA50CA40CA80B5D
:1001400091282408A928A009A109A00A0319A10A35
:100150000800831303138312640008000C30970017
:100160000C309D000530920083163E309200FE3028
:1001700085000F3086008701880183128601870180
:1001800088012D3095002D309B0006128316061233
:1001900083128612831686128312061383160613A1
:1001A00083128613831686130F3083128A0136203A
:1001B0000530A000A1010730840040308A011020E2
:1001C0000130A0000730840080308A01012020081F
:1001D000BC002108BD003C08A6003D08A700023075
:1001E000A200A3018A018D20C0002508C10040089B
:1001F000A0004108A1003A30A200A3018A017120A9
:10020000B8002108B9000530A000A1010730840022
:1002100010308A0110200130A00007308400203007
:100220008A0101202008BE002108BF003E08A60068
:100230003F08A7000230A200A3018A018D20C00060
:100240002508C1004008A0004108A1003A30A200E2
:10025000A3018A017120BA002108BB008611831610
:10026000861183123808A0003908A100A3011930B3
:100270008A015320C0003A08A0003B08A100A30156
:1002800019308A015320C2004008840042088A01C4
:100290006D20C200C3006400420843048A110A12A0
:1002A00003196F290612831606128312061383168A
:1002B0000613831286158316861183125830A00008
:1002C0000230A1000630840004308A01102005307D
:1002D000A10078308A0144208A110A12FC29030106
:1002E000061CFF30C00003018618FF30C200400822
:1002F000840042088A016620C200C30064004208EC
:1003000043048A110A12031993290613831606134C
:10031000073083128A0136200616831606128312CE
:100320008A110A12FC2903010618FF30C0000301DC
:10033000861CFF30C2004008840042088A01662003
:10034000C200C3006400420843048A110A12031960
:10035000B729061283160612073083128A01362047
:1003600006178316061383128A110A12FC29030149
:100370000618FF30C00003018618FF30C200400895
:10038000840042088A016620C200C300640042085B
:1003900043048A110A120319DB2906168316061272
:1003A00083120617831606131E3083128A01362025
:1003B0008A110A12FC290301061CFF30C000030148
:1003C000861CFF30C2004008840042088A01662073
:1003D000C200C3006400420843048A110A120319D0
:1003E000FC290616831606128312061783160613B7
:0C03F0001E3083128A0136208A01D828B2
:02400E007E3FF3
:00000001FF
